:0400000020100010BC
:0400010020110000CA
:0400020012110003D4
:040003002210FFFFC9
:0400040022310001A4
:0400050008000002ED
:0400060022100000C4
:0400070022100000C3
:0400080022100000C2
:0400090022100000C1
:04000A00223100009F
:04000B00223100009E
:04000C00223100009D
:04000D00223100009C
:04000E0000000000EE
:04000F0000000000ED
:0400100000000000EC
:0400110000000000EB
:0400120000000000EA
:0400130000000000E9
:0400140000000000E8
:0400150000000000E7
:0400160000000000E6
:0400170000000000E5
:0400180000000000E4
:0400190000000000E3
:04001A0000000000E2
:04001B0000000000E1
:04001C0000000000E0
:04001D0000000000DF
:04001E0000000000DE
:04001F0000000000DD
:00000001FF
