:0400000022100012B8
:04000100AE3000001D
:040002008E3200003A
:040003000212802045
:0400040022100000C6
:0400050022100000C5
:0400060022100000C4
:0400070022100000C3
:0400080022100000C2
:04000900225200007F
:04000A00225200007E
:04000B00225200007D
:04000C00225200007C
:04000D00225200007B
:04000E0000000000EE
:04000F0000000000ED
:0400100000000000EC
:0400110000000000EB
:0400120000000000EA
:0400130000000000E9
:0400140000000000E8
:0400150000000000E7
:0400160000000000E6
:0400170000000000E5
:0400180000000000E4
:0400190000000000E3
:04001A0000000000E2
:04001B0000000000E1
:04001C0000000000E0
:04001D0000000000DF
:04001E0000000000DE
:04001F0000000000DD
:00000001FF
