:040000002231001297
:0400010016300004B1
:040002002231001295
:0400030000000000F9
:0400040000000000F8
:0400050000000000F7
:04000600223100168D
:0400070008000002EB
:0400080022310000A1
:0400090022310000A0
:04000A00223100009F
:04000B00223100009E
:04000C00223100009D
:04000D00223100009C
:04000E0000000000EE
:04000F0000000000ED
:0400100000000000EC
:0400110000000000EB
:0400120000000000EA
:0400130000000000E9
:0400140000000000E8
:0400150000000000E7
:0400160000000000E6
:0400170000000000E5
:0400180000000000E4
:0400190000000000E3
:04001A0000000000E2
:04001B0000000000E1
:04001C0000000000E0
:04001D0000000000DF
:04001E0000000000DE
:04001F0000000000DD
:00000001FF
