:0400000022100012B8
:0400010000000000FB
:0400020000000000FA
:0400030022100016B1
:04000400221000299D
:0400050022100000C5
:0400060022100000C4
:0400070022100000C3
:0400080022100000C2
:0400090022100000C1
:04000A0000000000F2
:04000B0000000000F1
:04000C0000000000F0
:04000D0000000000EF
:04000E0000000000EE
:04000F0000000000ED
:0400100000000000EC
:0400110000000000EB
:0400120000000000EA
:0400130000000000E9
:0400140000000000E8
:0400150000000000E7
:0400160000000000E6
:0400170000000000E5
:0400180000000000E4
:0400190000000000E3
:04001A0000000000E2
:04001B0000000000E1
:04001C0000000000E0
:04001D0000000000DF
:04001E0000000000DE
:04001F0000000000DD
:00000001FF
